{
  "_format": "hh-sol-artifact-1",
  "contractName": "Auction",
  "sourceName": "contracts/Auction.sol",
  "abi": [
    {
      "inputs": [],
      "stateMutability": "nonpayable",
      "type": "constructor"
    },
    {
      "anonymous": false,
      "inputs": [
        {
          "indexed": false,
          "internalType": "contract IERC721",
          "name": "nftContract",
          "type": "address"
        },
        {
          "indexed": false,
          "internalType": "address",
          "name": "owner",
          "type": "address"
        },
        {
          "indexed": false,
          "internalType": "uint256",
          "name": "minPrice",
          "type": "uint256"
        }
      ],
      "name": "AuctionStarted",
      "type": "event"
    },
    {
      "anonymous": false,
      "inputs": [
        {
          "indexed": false,
          "internalType": "address",
          "name": "winner",
          "type": "address"
        },
        {
          "indexed": false,
          "internalType": "contract IERC721",
          "name": "nftContract",
          "type": "address"
        },
        {
          "indexed": false,
          "internalType": "uint256",
          "name": "tokenId",
          "type": "uint256"
        }
      ],
      "name": "AuctionTerminated",
      "type": "event"
    },
    {
      "anonymous": false,
      "inputs": [
        {
          "indexed": false,
          "internalType": "address",
          "name": "bidder",
          "type": "address"
        },
        {
          "indexed": false,
          "internalType": "uint256",
          "name": "bidAmount",
          "type": "uint256"
        }
      ],
      "name": "BidPlaced",
      "type": "event"
    },
    {
      "anonymous": false,
      "inputs": [
        {
          "indexed": false,
          "internalType": "address",
          "name": "bidder",
          "type": "address"
        },
        {
          "indexed": false,
          "internalType": "uint256",
          "name": "bidAmount",
          "type": "uint256"
        }
      ],
      "name": "BidRefounded",
      "type": "event"
    },
    {
      "stateMutability": "payable",
      "type": "fallback"
    },
    {
      "inputs": [
        {
          "internalType": "address",
          "name": "_nftContract",
          "type": "address"
        },
        {
          "internalType": "uint256",
          "name": "_tokenId",
          "type": "uint256"
        },
        {
          "internalType": "uint256",
          "name": "_minPrice",
          "type": "uint256"
        }
      ],
      "name": "begin",
      "outputs": [],
      "stateMutability": "nonpayable",
      "type": "function"
    },
    {
      "inputs": [],
      "name": "finalizeAuction",
      "outputs": [],
      "stateMutability": "nonpayable",
      "type": "function"
    },
    {
      "inputs": [],
      "name": "highestBid",
      "outputs": [
        {
          "internalType": "uint256",
          "name": "",
          "type": "uint256"
        }
      ],
      "stateMutability": "view",
      "type": "function"
    },
    {
      "inputs": [],
      "name": "highestBidder",
      "outputs": [
        {
          "internalType": "address",
          "name": "",
          "type": "address"
        }
      ],
      "stateMutability": "view",
      "type": "function"
    },
    {
      "inputs": [],
      "name": "minPrice",
      "outputs": [
        {
          "internalType": "uint256",
          "name": "",
          "type": "uint256"
        }
      ],
      "stateMutability": "view",
      "type": "function"
    },
    {
      "inputs": [],
      "name": "nftContract",
      "outputs": [
        {
          "internalType": "contract IERC721",
          "name": "",
          "type": "address"
        }
      ],
      "stateMutability": "view",
      "type": "function"
    },
    {
      "inputs": [],
      "name": "owner",
      "outputs": [
        {
          "internalType": "address",
          "name": "",
          "type": "address"
        }
      ],
      "stateMutability": "view",
      "type": "function"
    },
    {
      "inputs": [],
      "name": "placeBid",
      "outputs": [],
      "stateMutability": "payable",
      "type": "function"
    },
    {
      "inputs": [],
      "name": "start",
      "outputs": [
        {
          "internalType": "uint256",
          "name": "",
          "type": "uint256"
        }
      ],
      "stateMutability": "view",
      "type": "function"
    },
    {
      "inputs": [],
      "name": "tokenId",
      "outputs": [
        {
          "internalType": "uint256",
          "name": "",
          "type": "uint256"
        }
      ],
      "stateMutability": "view",
      "type": "function"
    },
    {
      "stateMutability": "payable",
      "type": "receive"
    }
  ],
  "bytecode": "0x608060405234801561001057600080fd5b50610fb2806100206000396000f3fe6080604052600436106100955760003560e01c8063d57bde7911610059578063d57bde7914610175578063e45be8eb146101a0578063e5988723146101cb578063ecfc7ecc146101f4578063f77282ab146101fe5761009c565b806317d70f7c1461009e5780638da5cb5b146100c957806391f90157146100f4578063be9a65551461011f578063d56d229d1461014a5761009c565b3661009c57005b005b3480156100aa57600080fd5b506100b3610215565b6040516100c09190610a22565b60405180910390f35b3480156100d557600080fd5b506100de61021b565b6040516100eb9190610a7e565b60405180910390f35b34801561010057600080fd5b5061010961023f565b6040516101169190610a7e565b60405180910390f35b34801561012b57600080fd5b50610134610265565b6040516101419190610a22565b60405180910390f35b34801561015657600080fd5b5061015f61026b565b60405161016c9190610af8565b60405180910390f35b34801561018157600080fd5b5061018a610291565b6040516101979190610a22565b60405180910390f35b3480156101ac57600080fd5b506101b5610297565b6040516101c29190610a22565b60405180910390f35b3480156101d757600080fd5b506101f260048036038101906101ed9190610b70565b61029d565b005b6101fc610416565b005b34801561020a57600080fd5b506102136106ce565b005b60025481565b60008054906101000a900473ffffffffffffffffffffffffffffffffffffffff1681565b600460009054906101000a900473ffffffffffffffffffffffffffffffffffffffff1681565b60065481565b600160009054906101000a900473ffffffffffffffffffffffffffffffffffffffff1681565b60055481565b60035481565b336000806101000a81548173ffffffffffffffffffffffffffffffffffffffff021916908373ffffffffffffffffffffffffffffffffffffffff16021790555061033c6040518060400160405280600581526020017f6f776e657200000000000000000000000000000000000000000000000000000081525060008054906101000a900473ffffffffffffffffffffffffffffffffffffffff1661091d565b82600160006101000a81548173ffffffffffffffffffffffffffffffffffffffff021916908373ffffffffffffffffffffffffffffffffffffffff1602179055508160028190555080600381905550426006819055507f7d4f3b9ce753851559cfde4316c33c8eb706e1b75bb5c5e314b91804b15d3d02600160009054906101000a900473ffffffffffffffffffffffffffffffffffffffff1660008054906101000a900473ffffffffffffffffffffffffffffffffffffffff1660035460405161040993929190610bc3565b60405180910390a1505050565b600460009054906101000a900473ffffffffffffffffffffffffffffffffffffffff1673ffffffffffffffffffffffffffffffffffffffff163373ffffffffffffffffffffffffffffffffffffffff16036104a6576040517f08c379a000000000000000000000000000000000000000000000000000000000815260040161049d90610c57565b60405180910390fd5b60055434116104ea576040517f08c379a00000000000000000000000000000000000000000000000000000000081526004016104e190610ce9565b60405180910390fd5b600060055490506000600460009054906101000a900473ffffffffffffffffffffffffffffffffffffffff16905033600460006101000a81548173ffffffffffffffffffffffffffffffffffffffff021916908373ffffffffffffffffffffffffffffffffffffffff16021790555034600581905550600073ffffffffffffffffffffffffffffffffffffffff168173ffffffffffffffffffffffffffffffffffffffff16036105da576003543410156105d9576040517f08c379a00000000000000000000000000000000000000000000000000000000081526004016105d090610d7b565b60405180910390fd5b5b600073ffffffffffffffffffffffffffffffffffffffff168173ffffffffffffffffffffffffffffffffffffffff161461068f578073ffffffffffffffffffffffffffffffffffffffff166108fc839081150290604051600060405180830381858888f19350505050158015610654573d6000803e3d6000fd5b507fda63878837e00f411877fb3bfc1de9691e01654523601d78f2f635fb2f87b1398183604051610686929190610d9b565b60405180910390a15b7f3fabff0a9c3ecd6814702e247fa9733e5d0aa69e3a38590f92cb18f623a2254d336005546040516106c2929190610d9b565b60405180910390a15050565b60008054906101000a900473ffffffffffffffffffffffffffffffffffffffff1673ffffffffffffffffffffffffffffffffffffffff163373ffffffffffffffffffffffffffffffffffffffff161461075c576040517f08c379a000000000000000000000000000000000000000000000000000000000815260040161075390610e10565b60405180910390fd5b600160009054906101000a900473ffffffffffffffffffffffffffffffffffffffff1673ffffffffffffffffffffffffffffffffffffffff166342842e0e60008054906101000a900473ffffffffffffffffffffffffffffffffffffffff16600460009054906101000a900473ffffffffffffffffffffffffffffffffffffffff166002546040518463ffffffff1660e01b81526004016107ff93929190610e30565b600060405180830381600087803b15801561081957600080fd5b505af115801561082d573d6000803e3d6000fd5b5050505060008054906101000a900473ffffffffffffffffffffffffffffffffffffffff1673ffffffffffffffffffffffffffffffffffffffff166108fc6005549081150290604051600060405180830381858888f19350505050158015610899573d6000803e3d6000fd5b507f612086e23b687286b24e61be0e8dc49c14fac58b2dd8ce55e951041b43a7388b600460009054906101000a900473ffffffffffffffffffffffffffffffffffffffff16600160009054906101000a900473ffffffffffffffffffffffffffffffffffffffff1660025460405161091393929190610e67565b60405180910390a1565b6109b58282604051602401610933929190610f1d565b6040516020818303038152906040527f319af333000000000000000000000000000000000000000000000000000000007bffffffffffffffffffffffffffffffffffffffffffffffffffffffff19166020820180517bffffffffffffffffffffffffffffffffffffffffffffffffffffffff83818316178352505050506109b9565b5050565b6109d0816109c86109d36109f4565b63ffffffff16565b50565b60006a636f6e736f6c652e6c6f679050600080835160208501845afa505050565b6109ff819050919050565b610a07610f4d565b565b6000819050919050565b610a1c81610a09565b82525050565b6000602082019050610a376000830184610a13565b92915050565b600073ffffffffffffffffffffffffffffffffffffffff82169050919050565b6000610a6882610a3d565b9050919050565b610a7881610a5d565b82525050565b6000602082019050610a936000830184610a6f565b92915050565b6000819050919050565b6000610abe610ab9610ab484610a3d565b610a99565b610a3d565b9050919050565b6000610ad082610aa3565b9050919050565b6000610ae282610ac5565b9050919050565b610af281610ad7565b82525050565b6000602082019050610b0d6000830184610ae9565b92915050565b600080fd5b610b2181610a5d565b8114610b2c57600080fd5b50565b600081359050610b3e81610b18565b92915050565b610b4d81610a09565b8114610b5857600080fd5b50565b600081359050610b6a81610b44565b92915050565b600080600060608486031215610b8957610b88610b13565b5b6000610b9786828701610b2f565b9350506020610ba886828701610b5b565b9250506040610bb986828701610b5b565b9150509250925092565b6000606082019050610bd86000830186610ae9565b610be56020830185610a6f565b610bf26040830184610a13565b949350505050565b600082825260208201905092915050565b7f596f7520616c7265616479206861766520746865206869676865737420626964600082015250565b6000610c41602083610bfa565b9150610c4c82610c0b565b602082019050919050565b60006020820190508181036000830152610c7081610c34565b9050919050565b7f42696420616d6f756e74206973206e6f7420686967686572207468616e20746860008201527f652063757272656e742068696768657374206269640000000000000000000000602082015250565b6000610cd3603583610bfa565b9150610cde82610c77565b604082019050919050565b60006020820190508181036000830152610d0281610cc6565b9050919050565b7f54686520626964206973206c6f776572207468616e20746865206d696e696d7560008201527f6d20707269636520666f72207468652041756374696f6e000000000000000000602082015250565b6000610d65603783610bfa565b9150610d7082610d09565b604082019050919050565b60006020820190508181036000830152610d9481610d58565b9050919050565b6000604082019050610db06000830185610a6f565b610dbd6020830184610a13565b9392505050565b7f4e6f7420746865206f776e657200000000000000000000000000000000000000600082015250565b6000610dfa600d83610bfa565b9150610e0582610dc4565b602082019050919050565b60006020820190508181036000830152610e2981610ded565b9050919050565b6000606082019050610e456000830186610a6f565b610e526020830185610a6f565b610e5f6040830184610a13565b949350505050565b6000606082019050610e7c6000830186610a6f565b610e896020830185610ae9565b610e966040830184610a13565b949350505050565b600081519050919050565b60005b83811015610ec7578082015181840152602081019050610eac565b60008484015250505050565b6000601f19601f8301169050919050565b6000610eef82610e9e565b610ef98185610bfa565b9350610f09818560208601610ea9565b610f1281610ed3565b840191505092915050565b60006040820190508181036000830152610f378185610ee4565b9050610f466020830184610a6f565b9392505050565b7f4e487b7100000000000000000000000000000000000000000000000000000000600052605160045260246000fdfea26469706673582212206da75ecb0c9e778aa7073e473b046a5c40a3224f3e68c403783a432b9e7aea4964736f6c63430008140033",
  "linkReferences": {},
  "deployedLinkReferences": {}
}