{
  "_format": "hh-sol-artifact-1",
  "contractName": "NFT",
  "sourceName": "contracts/NFT.sol",
  "abi": [
    {
      "inputs": [],
      "stateMutability": "nonpayable",
      "type": "constructor"
    },
    {
      "inputs": [
        {
          "internalType": "address",
          "name": "sender",
          "type": "address"
        },
        {
          "internalType": "uint256",
          "name": "tokenId",
          "type": "uint256"
        },
        {
          "internalType": "address",
          "name": "owner",
          "type": "address"
        }
      ],
      "name": "ERC721IncorrectOwner",
      "type": "error"
    },
    {
      "inputs": [
        {
          "internalType": "address",
          "name": "operator",
          "type": "address"
        },
        {
          "internalType": "uint256",
          "name": "tokenId",
          "type": "uint256"
        }
      ],
      "name": "ERC721InsufficientApproval",
      "type": "error"
    },
    {
      "inputs": [
        {
          "internalType": "address",
          "name": "approver",
          "type": "address"
        }
      ],
      "name": "ERC721InvalidApprover",
      "type": "error"
    },
    {
      "inputs": [
        {
          "internalType": "address",
          "name": "operator",
          "type": "address"
        }
      ],
      "name": "ERC721InvalidOperator",
      "type": "error"
    },
    {
      "inputs": [
        {
          "internalType": "address",
          "name": "owner",
          "type": "address"
        }
      ],
      "name": "ERC721InvalidOwner",
      "type": "error"
    },
    {
      "inputs": [
        {
          "internalType": "address",
          "name": "receiver",
          "type": "address"
        }
      ],
      "name": "ERC721InvalidReceiver",
      "type": "error"
    },
    {
      "inputs": [
        {
          "internalType": "address",
          "name": "sender",
          "type": "address"
        }
      ],
      "name": "ERC721InvalidSender",
      "type": "error"
    },
    {
      "inputs": [
        {
          "internalType": "uint256",
          "name": "tokenId",
          "type": "uint256"
        }
      ],
      "name": "ERC721NonexistentToken",
      "type": "error"
    },
    {
      "anonymous": false,
      "inputs": [
        {
          "indexed": true,
          "internalType": "address",
          "name": "owner",
          "type": "address"
        },
        {
          "indexed": true,
          "internalType": "address",
          "name": "approved",
          "type": "address"
        },
        {
          "indexed": true,
          "internalType": "uint256",
          "name": "tokenId",
          "type": "uint256"
        }
      ],
      "name": "Approval",
      "type": "event"
    },
    {
      "anonymous": false,
      "inputs": [
        {
          "indexed": true,
          "internalType": "address",
          "name": "owner",
          "type": "address"
        },
        {
          "indexed": true,
          "internalType": "address",
          "name": "operator",
          "type": "address"
        },
        {
          "indexed": false,
          "internalType": "bool",
          "name": "approved",
          "type": "bool"
        }
      ],
      "name": "ApprovalForAll",
      "type": "event"
    },
    {
      "anonymous": false,
      "inputs": [
        {
          "indexed": false,
          "internalType": "uint256",
          "name": "_fromTokenId",
          "type": "uint256"
        },
        {
          "indexed": false,
          "internalType": "uint256",
          "name": "_toTokenId",
          "type": "uint256"
        }
      ],
      "name": "BatchMetadataUpdate",
      "type": "event"
    },
    {
      "anonymous": false,
      "inputs": [
        {
          "indexed": false,
          "internalType": "uint256",
          "name": "_tokenId",
          "type": "uint256"
        }
      ],
      "name": "MetadataUpdate",
      "type": "event"
    },
    {
      "anonymous": false,
      "inputs": [
        {
          "indexed": true,
          "internalType": "address",
          "name": "from",
          "type": "address"
        },
        {
          "indexed": true,
          "internalType": "address",
          "name": "to",
          "type": "address"
        },
        {
          "indexed": true,
          "internalType": "uint256",
          "name": "tokenId",
          "type": "uint256"
        }
      ],
      "name": "Transfer",
      "type": "event"
    },
    {
      "inputs": [
        {
          "internalType": "address",
          "name": "to",
          "type": "address"
        },
        {
          "internalType": "uint256",
          "name": "tokenId",
          "type": "uint256"
        }
      ],
      "name": "approve",
      "outputs": [],
      "stateMutability": "nonpayable",
      "type": "function"
    },
    {
      "inputs": [
        {
          "internalType": "address",
          "name": "owner",
          "type": "address"
        }
      ],
      "name": "balanceOf",
      "outputs": [
        {
          "internalType": "uint256",
          "name": "",
          "type": "uint256"
        }
      ],
      "stateMutability": "view",
      "type": "function"
    },
    {
      "inputs": [
        {
          "internalType": "uint256",
          "name": "tokenId",
          "type": "uint256"
        }
      ],
      "name": "getApproved",
      "outputs": [
        {
          "internalType": "address",
          "name": "",
          "type": "address"
        }
      ],
      "stateMutability": "view",
      "type": "function"
    },
    {
      "inputs": [],
      "name": "getCurrentTokenId",
      "outputs": [
        {
          "internalType": "uint256",
          "name": "",
          "type": "uint256"
        }
      ],
      "stateMutability": "view",
      "type": "function"
    },
    {
      "inputs": [
        {
          "internalType": "address",
          "name": "owner",
          "type": "address"
        },
        {
          "internalType": "address",
          "name": "operator",
          "type": "address"
        }
      ],
      "name": "isApprovedForAll",
      "outputs": [
        {
          "internalType": "bool",
          "name": "",
          "type": "bool"
        }
      ],
      "stateMutability": "view",
      "type": "function"
    },
    {
      "inputs": [
        {
          "internalType": "address",
          "name": "to",
          "type": "address"
        },
        {
          "internalType": "string",
          "name": "tokenURI",
          "type": "string"
        }
      ],
      "name": "mintNFT",
      "outputs": [
        {
          "internalType": "uint256",
          "name": "",
          "type": "uint256"
        }
      ],
      "stateMutability": "nonpayable",
      "type": "function"
    },
    {
      "inputs": [],
      "name": "name",
      "outputs": [
        {
          "internalType": "string",
          "name": "",
          "type": "string"
        }
      ],
      "stateMutability": "view",
      "type": "function"
    },
    {
      "inputs": [
        {
          "internalType": "uint256",
          "name": "tokenId",
          "type": "uint256"
        }
      ],
      "name": "ownerOf",
      "outputs": [
        {
          "internalType": "address",
          "name": "",
          "type": "address"
        }
      ],
      "stateMutability": "view",
      "type": "function"
    },
    {
      "inputs": [
        {
          "internalType": "address",
          "name": "from",
          "type": "address"
        },
        {
          "internalType": "address",
          "name": "to",
          "type": "address"
        },
        {
          "internalType": "uint256",
          "name": "tokenId",
          "type": "uint256"
        }
      ],
      "name": "safeTransferFrom",
      "outputs": [],
      "stateMutability": "nonpayable",
      "type": "function"
    },
    {
      "inputs": [
        {
          "internalType": "address",
          "name": "from",
          "type": "address"
        },
        {
          "internalType": "address",
          "name": "to",
          "type": "address"
        },
        {
          "internalType": "uint256",
          "name": "tokenId",
          "type": "uint256"
        },
        {
          "internalType": "bytes",
          "name": "data",
          "type": "bytes"
        }
      ],
      "name": "safeTransferFrom",
      "outputs": [],
      "stateMutability": "nonpayable",
      "type": "function"
    },
    {
      "inputs": [
        {
          "internalType": "address",
          "name": "operator",
          "type": "address"
        },
        {
          "internalType": "bool",
          "name": "approved",
          "type": "bool"
        }
      ],
      "name": "setApprovalForAll",
      "outputs": [],
      "stateMutability": "nonpayable",
      "type": "function"
    },
    {
      "inputs": [
        {
          "internalType": "bytes4",
          "name": "interfaceId",
          "type": "bytes4"
        }
      ],
      "name": "supportsInterface",
      "outputs": [
        {
          "internalType": "bool",
          "name": "",
          "type": "bool"
        }
      ],
      "stateMutability": "view",
      "type": "function"
    },
    {
      "inputs": [],
      "name": "symbol",
      "outputs": [
        {
          "internalType": "string",
          "name": "",
          "type": "string"
        }
      ],
      "stateMutability": "view",
      "type": "function"
    },
    {
      "inputs": [
        {
          "internalType": "uint256",
          "name": "tokenId",
          "type": "uint256"
        }
      ],
      "name": "tokenURI",
      "outputs": [
        {
          "internalType": "string",
          "name": "",
          "type": "string"
        }
      ],
      "stateMutability": "view",
      "type": "function"
    },
    {
      "inputs": [
        {
          "internalType": "address",
          "name": "from",
          "type": "address"
        },
        {
          "internalType": "address",
          "name": "to",
          "type": "address"
        },
        {
          "internalType": "uint256",
          "name": "tokenId",
          "type": "uint256"
        }
      ],
      "name": "transferFrom",
      "outputs": [],
      "stateMutability": "nonpayable",
      "type": "function"
    }
  ],
  "bytecode": "0x60806040523480156200001157600080fd5b506040518060400160405280600581526020017f4d794e46540000000000000000000000000000000000000000000000000000008152506040518060400160405280600481526020017f4d4e46540000000000000000000000000000000000000000000000000000000081525081600090816200008f919062000324565b508060019081620000a1919062000324565b5050506200040b565b600081519050919050565b7f4e487b7100000000000000000000000000000000000000000000000000000000600052604160045260246000fd5b7f4e487b7100000000000000000000000000000000000000000000000000000000600052602260045260246000fd5b600060028204905060018216806200012c57607f821691505b602082108103620001425762000141620000e4565b5b50919050565b60008190508160005260206000209050919050565b60006020601f8301049050919050565b600082821b905092915050565b600060088302620001ac7fffffffffffffffffffffffffffffffffffffffffffffffffffffffffffffffff826200016d565b620001b886836200016d565b95508019841693508086168417925050509392505050565b6000819050919050565b6000819050919050565b600062000205620001ff620001f984620001d0565b620001da565b620001d0565b9050919050565b6000819050919050565b6200022183620001e4565b6200023962000230826200020c565b8484546200017a565b825550505050565b600090565b6200025062000241565b6200025d81848462000216565b505050565b5b8181101562000285576200027960008262000246565b60018101905062000263565b5050565b601f821115620002d4576200029e8162000148565b620002a9846200015d565b81016020851015620002b9578190505b620002d1620002c8856200015d565b83018262000262565b50505b505050565b600082821c905092915050565b6000620002f960001984600802620002d9565b1980831691505092915050565b6000620003148383620002e6565b9150826002028217905092915050565b6200032f82620000aa565b67ffffffffffffffff8111156200034b576200034a620000b5565b5b62000357825462000113565b6200036482828562000289565b600060209050601f8311600181146200039c576000841562000387578287015190505b62000393858262000306565b86555062000403565b601f198416620003ac8662000148565b60005b82811015620003d657848901518255600182019150602085019450602081019050620003af565b86831015620003f65784890151620003f2601f891682620002e6565b8355505b6001600288020188555050505b505050505050565b6123f2806200041b6000396000f3fe608060405234801561001057600080fd5b50600436106100f55760003560e01c80636352211e11610097578063b88d4fde11610066578063b88d4fde14610284578063c87b56dd146102a0578063e985e9c5146102d0578063eacabe1414610300576100f5565b80636352211e146101ea57806370a082311461021a57806395d89b411461024a578063a22cb46514610268576100f5565b8063095ea7b3116100d3578063095ea7b31461017857806323b872dd1461019457806342842e0e146101b057806356189236146101cc576100f5565b806301ffc9a7146100fa57806306fdde031461012a578063081812fc14610148575b600080fd5b610114600480360381019061010f919061184a565b610330565b6040516101219190611892565b60405180910390f35b610132610391565b60405161013f919061193d565b60405180910390f35b610162600480360381019061015d9190611995565b610423565b60405161016f9190611a03565b60405180910390f35b610192600480360381019061018d9190611a4a565b61043f565b005b6101ae60048036038101906101a99190611a8a565b610455565b005b6101ca60048036038101906101c59190611a8a565b610557565b005b6101d4610577565b6040516101e19190611aec565b60405180910390f35b61020460048036038101906101ff9190611995565b610581565b6040516102119190611a03565b60405180910390f35b610234600480360381019061022f9190611b07565b610593565b6040516102419190611aec565b60405180910390f35b61025261064d565b60405161025f919061193d565b60405180910390f35b610282600480360381019061027d9190611b60565b6106df565b005b61029e60048036038101906102999190611cd5565b6106f5565b005b6102ba60048036038101906102b59190611995565b610712565b6040516102c7919061193d565b60405180910390f35b6102ea60048036038101906102e59190611d58565b610825565b6040516102f79190611892565b60405180910390f35b61031a60048036038101906103159190611e39565b6108b9565b6040516103279190611aec565b60405180910390f35b6000634906490660e01b7bffffffffffffffffffffffffffffffffffffffffffffffffffffffff1916827bffffffffffffffffffffffffffffffffffffffffffffffffffffffff1916148061038a5750610389826108f6565b5b9050919050565b6060600080546103a090611ec4565b80601f01602080910402602001604051908101604052809291908181526020018280546103cc90611ec4565b80156104195780601f106103ee57610100808354040283529160200191610419565b820191906000526020600020905b8154815290600101906020018083116103fc57829003601f168201915b5050505050905090565b600061042e826109d8565b5061043882610a60565b9050919050565b610451828261044c610a9d565b610aa5565b5050565b600073ffffffffffffffffffffffffffffffffffffffff168273ffffffffffffffffffffffffffffffffffffffff16036104c75760006040517f64a0ae920000000000000000000000000000000000000000000000000000000081526004016104be9190611a03565b60405180910390fd5b60006104db83836104d6610a9d565b610ab7565b90508373ffffffffffffffffffffffffffffffffffffffff168173ffffffffffffffffffffffffffffffffffffffff1614610551578382826040517f64283d7b00000000000000000000000000000000000000000000000000000000815260040161054893929190611ef5565b60405180910390fd5b50505050565b610572838383604051806020016040528060008152506106f5565b505050565b6000600754905090565b600061058c826109d8565b9050919050565b60008073ffffffffffffffffffffffffffffffffffffffff168273ffffffffffffffffffffffffffffffffffffffff16036106065760006040517f89c62b640000000000000000000000000000000000000000000000000000000081526004016105fd9190611a03565b60405180910390fd5b600360008373ffffffffffffffffffffffffffffffffffffffff1673ffffffffffffffffffffffffffffffffffffffff168152602001908152602001600020549050919050565b60606001805461065c90611ec4565b80601f016020809104026020016040519081016040528092919081815260200182805461068890611ec4565b80156106d55780601f106106aa576101008083540402835291602001916106d5565b820191906000526020600020905b8154815290600101906020018083116106b857829003601f168201915b5050505050905090565b6106f16106ea610a9d565b8383610cd1565b5050565b610700848484610455565b61070c84848484610e40565b50505050565b606061071d826109d8565b50600060066000848152602001908152602001600020805461073e90611ec4565b80601f016020809104026020016040519081016040528092919081815260200182805461076a90611ec4565b80156107b75780601f1061078c576101008083540402835291602001916107b7565b820191906000526020600020905b81548152906001019060200180831161079a57829003601f168201915b5050505050905060006107c8610ff7565b905060008151036107dd578192505050610820565b6000825111156108125780826040516020016107fa929190611f68565b60405160208183030381529060405292505050610820565b61081b8461100e565b925050505b919050565b6000600560008473ffffffffffffffffffffffffffffffffffffffff1673ffffffffffffffffffffffffffffffffffffffff16815260200190815260200160002060008373ffffffffffffffffffffffffffffffffffffffff1673ffffffffffffffffffffffffffffffffffffffff16815260200190815260200160002060009054906101000a900460ff16905092915050565b6000600760008154809291906108ce90611fbb565b91905055506108df83600754611077565b6108eb60075483611170565b600754905092915050565b60007f80ac58cd000000000000000000000000000000000000000000000000000000007bffffffffffffffffffffffffffffffffffffffffffffffffffffffff1916827bffffffffffffffffffffffffffffffffffffffffffffffffffffffff191614806109c157507f5b5e139f000000000000000000000000000000000000000000000000000000007bffffffffffffffffffffffffffffffffffffffffffffffffffffffff1916827bffffffffffffffffffffffffffffffffffffffffffffffffffffffff1916145b806109d157506109d0826111cc565b5b9050919050565b6000806109e483611236565b9050600073ffffffffffffffffffffffffffffffffffffffff168173ffffffffffffffffffffffffffffffffffffffff1603610a5757826040517f7e273289000000000000000000000000000000000000000000000000000000008152600401610a4e9190611aec565b60405180910390fd5b80915050919050565b60006004600083815260200190815260200160002060009054906101000a900473ffffffffffffffffffffffffffffffffffffffff169050919050565b600033905090565b610ab28383836001611273565b505050565b600080610ac384611236565b9050600073ffffffffffffffffffffffffffffffffffffffff168373ffffffffffffffffffffffffffffffffffffffff1614610b0557610b04818486611438565b5b600073ffffffffffffffffffffffffffffffffffffffff168173ffffffffffffffffffffffffffffffffffffffff1614610b9657610b47600085600080611273565b6001600360008373ffffffffffffffffffffffffffffffffffffffff1673ffffffffffffffffffffffffffffffffffffffff168152602001908152602001600020600082825403925050819055505b600073ffffffffffffffffffffffffffffffffffffffff168573ffffffffffffffffffffffffffffffffffffffff1614610c19576001600360008773ffffffffffffffffffffffffffffffffffffffff1673ffffffffffffffffffffffffffffffffffffffff168152602001908152602001600020600082825401925050819055505b846002600086815260200190815260200160002060006101000a81548173ffffffffffffffffffffffffffffffffffffffff021916908373ffffffffffffffffffffffffffffffffffffffff160217905550838573ffffffffffffffffffffffffffffffffffffffff168273ffffffffffffffffffffffffffffffffffffffff167fddf252ad1be2c89b69c2b068fc378daa952ba7f163c4a11628f55a4df523b3ef60405160405180910390a4809150509392505050565b600073ffffffffffffffffffffffffffffffffffffffff168273ffffffffffffffffffffffffffffffffffffffff1603610d4257816040517f5b08ba18000000000000000000000000000000000000000000000000000000008152600401610d399190611a03565b60405180910390fd5b80600560008573ffffffffffffffffffffffffffffffffffffffff1673ffffffffffffffffffffffffffffffffffffffff16815260200190815260200160002060008473ffffffffffffffffffffffffffffffffffffffff1673ffffffffffffffffffffffffffffffffffffffff16815260200190815260200160002060006101000a81548160ff0219169083151502179055508173ffffffffffffffffffffffffffffffffffffffff168373ffffffffffffffffffffffffffffffffffffffff167f17307eab39ab6107e8899845ad3d59bd9653f200f220920489ca2b5937696c3183604051610e339190611892565b60405180910390a3505050565b60008373ffffffffffffffffffffffffffffffffffffffff163b1115610ff1578273ffffffffffffffffffffffffffffffffffffffff1663150b7a02610e84610a9d565b8685856040518563ffffffff1660e01b8152600401610ea69493929190612058565b6020604051808303816000875af1925050508015610ee257506040513d601f19601f82011682018060405250810190610edf91906120b9565b60015b610f66573d8060008114610f12576040519150601f19603f3d011682016040523d82523d6000602084013e610f17565b606091505b506000815103610f5e57836040517f64a0ae92000000000000000000000000000000000000000000000000000000008152600401610f559190611a03565b60405180910390fd5b805181602001fd5b63150b7a0260e01b7bffffffffffffffffffffffffffffffffffffffffffffffffffffffff1916817bffffffffffffffffffffffffffffffffffffffffffffffffffffffff191614610fef57836040517f64a0ae92000000000000000000000000000000000000000000000000000000008152600401610fe69190611a03565b60405180910390fd5b505b50505050565b606060405180602001604052806000815250905090565b6060611019826109d8565b506000611024610ff7565b90506000815111611044576040518060200160405280600081525061106f565b8061104e846114fc565b60405160200161105f929190611f68565b6040516020818303038152906040525b915050919050565b600073ffffffffffffffffffffffffffffffffffffffff168273ffffffffffffffffffffffffffffffffffffffff16036110e95760006040517f64a0ae920000000000000000000000000000000000000000000000000000000081526004016110e09190611a03565b60405180910390fd5b60006110f783836000610ab7565b9050600073ffffffffffffffffffffffffffffffffffffffff168173ffffffffffffffffffffffffffffffffffffffff161461116b5760006040517f73c6ac6e0000000000000000000000000000000000000000000000000000000081526004016111629190611a03565b60405180910390fd5b505050565b806006600084815260200190815260200160002090816111909190612292565b507ff8e1a15aba9398e019f0b49df1a4fde98ee17ae345cb5f6b5e2c27f5033e8ce7826040516111c09190611aec565b60405180910390a15050565b60007f01ffc9a7000000000000000000000000000000000000000000000000000000007bffffffffffffffffffffffffffffffffffffffffffffffffffffffff1916827bffffffffffffffffffffffffffffffffffffffffffffffffffffffff1916149050919050565b60006002600083815260200190815260200160002060009054906101000a900473ffffffffffffffffffffffffffffffffffffffff169050919050565b80806112ac5750600073ffffffffffffffffffffffffffffffffffffffff168273ffffffffffffffffffffffffffffffffffffffff1614155b156113e05760006112bc846109d8565b9050600073ffffffffffffffffffffffffffffffffffffffff168373ffffffffffffffffffffffffffffffffffffffff161415801561132757508273ffffffffffffffffffffffffffffffffffffffff168173ffffffffffffffffffffffffffffffffffffffff1614155b801561133a57506113388184610825565b155b1561137c57826040517fa9fbf51f0000000000000000000000000000000000000000000000000000000081526004016113739190611a03565b60405180910390fd5b81156113de57838573ffffffffffffffffffffffffffffffffffffffff168273ffffffffffffffffffffffffffffffffffffffff167f8c5be1e5ebec7d5bd14f71427d1e84f3dd0314c0f7b2291e5b200ac8c7c3b92560405160405180910390a45b505b836004600085815260200190815260200160002060006101000a81548173ffffffffffffffffffffffffffffffffffffffff021916908373ffffffffffffffffffffffffffffffffffffffff16021790555050505050565b6114438383836115ca565b6114f757600073ffffffffffffffffffffffffffffffffffffffff168373ffffffffffffffffffffffffffffffffffffffff16036114b857806040517f7e2732890000000000000000000000000000000000000000000000000000000081526004016114af9190611aec565b60405180910390fd5b81816040517f177e802f0000000000000000000000000000000000000000000000000000000081526004016114ee929190612364565b60405180910390fd5b505050565b60606000600161150b8461168b565b01905060008167ffffffffffffffff81111561152a57611529611baa565b5b6040519080825280601f01601f19166020018201604052801561155c5781602001600182028036833780820191505090505b509050600082602001820190505b6001156115bf578080600190039150507f3031323334353637383961626364656600000000000000000000000000000000600a86061a8153600a85816115b3576115b261238d565b5b0494506000850361156a575b819350505050919050565b60008073ffffffffffffffffffffffffffffffffffffffff168373ffffffffffffffffffffffffffffffffffffffff161415801561168257508273ffffffffffffffffffffffffffffffffffffffff168473ffffffffffffffffffffffffffffffffffffffff16148061164357506116428484610825565b5b8061168157508273ffffffffffffffffffffffffffffffffffffffff1661166983610a60565b73ffffffffffffffffffffffffffffffffffffffff16145b5b90509392505050565b600080600090507a184f03e93ff9f4daa797ed6e38ed64bf6a1f01000000000000000083106116e9577a184f03e93ff9f4daa797ed6e38ed64bf6a1f01000000000000000083816116df576116de61238d565b5b0492506040810190505b6d04ee2d6d415b85acef81000000008310611726576d04ee2d6d415b85acef8100000000838161171c5761171b61238d565b5b0492506020810190505b662386f26fc10000831061175557662386f26fc10000838161174b5761174a61238d565b5b0492506010810190505b6305f5e100831061177e576305f5e10083816117745761177361238d565b5b0492506008810190505b61271083106117a35761271083816117995761179861238d565b5b0492506004810190505b606483106117c657606483816117bc576117bb61238d565b5b0492506002810190505b600a83106117d5576001810190505b80915050919050565b6000604051905090565b600080fd5b600080fd5b60007fffffffff0000000000000000000000000000000000000000000000000000000082169050919050565b611827816117f2565b811461183257600080fd5b50565b6000813590506118448161181e565b92915050565b6000602082840312156118605761185f6117e8565b5b600061186e84828501611835565b91505092915050565b60008115159050919050565b61188c81611877565b82525050565b60006020820190506118a76000830184611883565b92915050565b600081519050919050565b600082825260208201905092915050565b60005b838110156118e75780820151818401526020810190506118cc565b60008484015250505050565b6000601f19601f8301169050919050565b600061190f826118ad565b61191981856118b8565b93506119298185602086016118c9565b611932816118f3565b840191505092915050565b600060208201905081810360008301526119578184611904565b905092915050565b6000819050919050565b6119728161195f565b811461197d57600080fd5b50565b60008135905061198f81611969565b92915050565b6000602082840312156119ab576119aa6117e8565b5b60006119b984828501611980565b91505092915050565b600073ffffffffffffffffffffffffffffffffffffffff82169050919050565b60006119ed826119c2565b9050919050565b6119fd816119e2565b82525050565b6000602082019050611a1860008301846119f4565b92915050565b611a27816119e2565b8114611a3257600080fd5b50565b600081359050611a4481611a1e565b92915050565b60008060408385031215611a6157611a606117e8565b5b6000611a6f85828601611a35565b9250506020611a8085828601611980565b9150509250929050565b600080600060608486031215611aa357611aa26117e8565b5b6000611ab186828701611a35565b9350506020611ac286828701611a35565b9250506040611ad386828701611980565b9150509250925092565b611ae68161195f565b82525050565b6000602082019050611b016000830184611add565b92915050565b600060208284031215611b1d57611b1c6117e8565b5b6000611b2b84828501611a35565b91505092915050565b611b3d81611877565b8114611b4857600080fd5b50565b600081359050611b5a81611b34565b92915050565b60008060408385031215611b7757611b766117e8565b5b6000611b8585828601611a35565b9250506020611b9685828601611b4b565b9150509250929050565b600080fd5b600080fd5b7f4e487b7100000000000000000000000000000000000000000000000000000000600052604160045260246000fd5b611be2826118f3565b810181811067ffffffffffffffff82111715611c0157611c00611baa565b5b80604052505050565b6000611c146117de565b9050611c208282611bd9565b919050565b600067ffffffffffffffff821115611c4057611c3f611baa565b5b611c49826118f3565b9050602081019050919050565b82818337600083830152505050565b6000611c78611c7384611c25565b611c0a565b905082815260208101848484011115611c9457611c93611ba5565b5b611c9f848285611c56565b509392505050565b600082601f830112611cbc57611cbb611ba0565b5b8135611ccc848260208601611c65565b91505092915050565b60008060008060808587031215611cef57611cee6117e8565b5b6000611cfd87828801611a35565b9450506020611d0e87828801611a35565b9350506040611d1f87828801611980565b925050606085013567ffffffffffffffff811115611d4057611d3f6117ed565b5b611d4c87828801611ca7565b91505092959194509250565b60008060408385031215611d6f57611d6e6117e8565b5b6000611d7d85828601611a35565b9250506020611d8e85828601611a35565b9150509250929050565b600067ffffffffffffffff821115611db357611db2611baa565b5b611dbc826118f3565b9050602081019050919050565b6000611ddc611dd784611d98565b611c0a565b905082815260208101848484011115611df857611df7611ba5565b5b611e03848285611c56565b509392505050565b600082601f830112611e2057611e1f611ba0565b5b8135611e30848260208601611dc9565b91505092915050565b60008060408385031215611e5057611e4f6117e8565b5b6000611e5e85828601611a35565b925050602083013567ffffffffffffffff811115611e7f57611e7e6117ed565b5b611e8b85828601611e0b565b9150509250929050565b7f4e487b7100000000000000000000000000000000000000000000000000000000600052602260045260246000fd5b60006002820490506001821680611edc57607f821691505b602082108103611eef57611eee611e95565b5b50919050565b6000606082019050611f0a60008301866119f4565b611f176020830185611add565b611f2460408301846119f4565b949350505050565b600081905092915050565b6000611f42826118ad565b611f4c8185611f2c565b9350611f5c8185602086016118c9565b80840191505092915050565b6000611f748285611f37565b9150611f808284611f37565b91508190509392505050565b7f4e487b7100000000000000000000000000000000000000000000000000000000600052601160045260246000fd5b6000611fc68261195f565b91507fffffffffffffffffffffffffffffffffffffffffffffffffffffffffffffffff8203611ff857611ff7611f8c565b5b600182019050919050565b600081519050919050565b600082825260208201905092915050565b600061202a82612003565b612034818561200e565b93506120448185602086016118c9565b61204d816118f3565b840191505092915050565b600060808201905061206d60008301876119f4565b61207a60208301866119f4565b6120876040830185611add565b8181036060830152612099818461201f565b905095945050505050565b6000815190506120b38161181e565b92915050565b6000602082840312156120cf576120ce6117e8565b5b60006120dd848285016120a4565b91505092915050565b60008190508160005260206000209050919050565b60006020601f8301049050919050565b600082821b905092915050565b6000600883026121487fffffffffffffffffffffffffffffffffffffffffffffffffffffffffffffffff8261210b565b612152868361210b565b95508019841693508086168417925050509392505050565b6000819050919050565b600061218f61218a6121858461195f565b61216a565b61195f565b9050919050565b6000819050919050565b6121a983612174565b6121bd6121b582612196565b848454612118565b825550505050565b600090565b6121d26121c5565b6121dd8184846121a0565b505050565b5b81811015612201576121f66000826121ca565b6001810190506121e3565b5050565b601f82111561224657612217816120e6565b612220846120fb565b8101602085101561222f578190505b61224361223b856120fb565b8301826121e2565b50505b505050565b600082821c905092915050565b60006122696000198460080261224b565b1980831691505092915050565b60006122828383612258565b9150826002028217905092915050565b61229b826118ad565b67ffffffffffffffff8111156122b4576122b3611baa565b5b6122be8254611ec4565b6122c9828285612205565b600060209050601f8311600181146122fc57600084156122ea578287015190505b6122f48582612276565b86555061235c565b601f19841661230a866120e6565b60005b828110156123325784890151825560018201915060208501945060208101905061230d565b8683101561234f578489015161234b601f891682612258565b8355505b6001600288020188555050505b505050505050565b600060408201905061237960008301856119f4565b6123866020830184611add565b9392505050565b7f4e487b7100000000000000000000000000000000000000000000000000000000600052601260045260246000fdfea2646970667358221220bc1afd11928f3ae1d87c998ffd51710e0c5ae4c44732fdc01a788fd49093104f64736f6c63430008140033",
  "linkReferences": {},
  "deployedLinkReferences": {}
}